:100000000C9434000C945F000C944F000C949100FD
:100010000C944F000C944F000C944F000C944F0024
:100020000C944F000C944F000C944F000C944F0014
:100030000C944F000C944F000C944F000C944F0004
:100040000C944F000C944F000C944F000C944F00F4
:100050000C944F000C944F000C944F000C944F00E4
:100060000C944F000C944F0011241FBECFEFCDBF56
:1000700011E0A0E0B1E0E0E4F3E002C005900D92F1
:10008000A830B107D9F711E0A8E0B1E001C01D9296
:10009000AE30B107E1F70E94C3000C949F010C94AD
:1000A00000002098289AE8E6F0E080818160808353
:1000B000EBE6F0E0808181608083789408951F9260
:1000C0000F920FB60F9211248F939F93489B16C0E7
:1000D00080910C0190910D01892B81F48091080190
:1000E000909109010196909309018093080181E0A4
:1000F00090E090930D0180930C010CC048990AC0C8
:1001000080910C0190910D01892B21F010920D012D
:1001100010920C019F918F910F900FBE0F901F9026
:1001200018951F920F920FB60F9211248F939F93E1
:10013000189B16C080910C0190910D01892B81F4C0
:100140008091080190910901019690930901809393
:10015000080181E090E090930D0180930C010CC0A8
:1001600018990AC080910C0190910D01892B21F002
:1001700010920D0110920C019F918F910F900FBE64
:100180000F901F901895EF92FF920F931F93CF93AC
:10019000DF93CDB7DEB721970FB6F894DEBF0FBE61
:1001A000CDBF8091000189830E94510087E690E0D5
:1001B0000E94220100E010E07E010894E11CF11C85
:1001C00020910A0130910B01809108019091090161
:1001D0002817390741F08091080190910901909307
:1001E0000B0180930A0180910801909109018855C3
:1001F000924030F34AE0B801C7010E942F01C701C5
:100200000E9415010F5F1F4F10920B0110920A01FF
:100210001092090110920801D3CF982F8091C0004D
:1002200085FFFCCF9093C6000895FC0107C0809124
:10023000C00085FFFCCF9093C60031969081992332
:10024000B1F70895292F33272093C5008093C40068
:1002500088E18093C10086E08093C2000895CF9228
:10026000DF92EF92FF920F931F93CF93DF938C0156
:100270009B017C01FC01C0E0D0E0C42EDD241BC04A
:10028000C901B6010E948B01DB016C9DC0016D9D0F
:10029000900D7C9D900D1124B901681B790B6A307B
:1002A000710518F4862F805D02C0862F895C8083DB
:1002B000219631969D012115310511F7209729F4DA
:1002C00080E3D8018C93C1E0D0E0F801EC0FFD1F72
:1002D00010829E012150304040E050E00AC09081E1
:1002E000D7018C9180839D937D01215030404F5FD9
:1002F0005F4F31974217530794F3DF91CF911F91CE
:100300000F91FF90EF90DF90CF90089583E091E000
:100310000E9415010895AA1BBB1B51E107C0AA1F2B
:10032000BB1FA617B70710F0A61BB70B881F991F96
:100330005A95A9F780959095BC01CD010895FFCFFE
:08034000003D001B5B324A0086
:00000001FF
